{
  "contractName": "MyContract",
  "abi": [
    {
      "inputs": [],
      "payable": false,
      "stateMutability": "nonpayable",
      "type": "constructor"
    },
    {
      "anonymous": false,
      "inputs": [
        {
          "indexed": false,
          "internalType": "address",
          "name": "addr",
          "type": "address"
        },
        {
          "indexed": false,
          "internalType": "bytes32[]",
          "name": "service",
          "type": "bytes32[]"
        }
      ],
      "name": "Registered",
      "type": "event"
    },
    {
      "constant": false,
      "inputs": [
        {
          "internalType": "bytes",
          "name": "params",
          "type": "bytes"
        }
      ],
      "name": "registerService",
      "outputs": [],
      "payable": false,
      "stateMutability": "nonpayable",
      "type": "function"
    },
    {
      "constant": true,
      "inputs": [
        {
          "internalType": "bytes",
          "name": "params",
          "type": "bytes"
        }
      ],
      "name": "requestService",
      "outputs": [
        {
          "internalType": "address",
          "name": "",
          "type": "address"
        }
      ],
      "payable": false,
      "stateMutability": "view",
      "type": "function"
    }
  ],
  "bytecode": "0x608060405234801561001057600080fd5b5060006003819055506107e8806100286000396000f3fe608060405234801561001057600080fd5b50600436106100365760003560e01c80633f7f79951461003b578063f21a7a78146100f6575b600080fd5b6100f46004803603602081101561005157600080fd5b810190808035906020019064010000000081111561006e57600080fd5b82018360208201111561008057600080fd5b803590602001918460018302840111640100000000831117156100a257600080fd5b91908080601f016020809104026020016040519081016040528093929190818152602001838380828437600081840152601f19601f8201169050808301925050505050505091929192905050506101f1565b005b6101af6004803603602081101561010c57600080fd5b810190808035906020019064010000000081111561012957600080fd5b82018360208201111561013b57600080fd5b8035906020019184600183028401116401000000008311171561015d57600080fd5b91908080601f016020809104026020016040519081016040528093929190818152602001838380828437600081840152601f19601f820116905080830192505050505050509192919290505050610523565b604051808273ffffffffffffffffffffffffffffffffffffffff1673ffffffffffffffffffffffffffffffffffffffff16815260200191505060405180910390f35b60011515600260003373ffffffffffffffffffffffffffffffffffffffff1673ffffffffffffffffffffffffffffffffffffffff16815260200190815260200160002060009054906101000a900460ff16151514156102b8576040517f08c379a00000000000000000000000000000000000000000000000000000000081526004018080602001828103825260178152602001807f596f7520616c726561647920726567697374657265642e00000000000000000081525060200191505060405180910390fd5b60608180602001905160208110156102cf57600080fd5b81019080805160405193929190846401000000008211156102ef57600080fd5b8382019150602082018581111561030557600080fd5b825186602082028301116401000000008211171561032257600080fd5b8083526020830192505050908051906020019060200280838360005b8381101561035957808201518184015260208101905061033e565b505050509050016040525050509050806000803373ffffffffffffffffffffffffffffffffffffffff1673ffffffffffffffffffffffffffffffffffffffff16815260200190815260200160002090805190602001906103ba929190610741565b503360016000600354815260200190815260200160002060006101000a81548173ffffffffffffffffffffffffffffffffffffffff021916908373ffffffffffffffffffffffffffffffffffffffff1602179055506001600260003373ffffffffffffffffffffffffffffffffffffffff1673ffffffffffffffffffffffffffffffffffffffff16815260200190815260200160002060006101000a81548160ff0219169083151502179055506001600354016003819055507fe66be0cee2341866943ae436c7ddf28eb3a6fba49d7d0929e2e4a4a0962d601d3382604051808373ffffffffffffffffffffffffffffffffffffffff1673ffffffffffffffffffffffffffffffffffffffff16815260200180602001828103825283818151815260200191508051906020019060200280838360005b8381101561050b5780820151818401526020810190506104f0565b50505050905001935050505060405180910390a15050565b6000606082806020019051602081101561053c57600080fd5b810190808051604051939291908464010000000082111561055c57600080fd5b8382019150602082018581111561057257600080fd5b825186602082028301116401000000008211171561058f57600080fd5b8083526020830192505050908051906020019060200280838360005b838110156105c65780820151818401526020810190506105ab565b5050505090500160405250505090506000806000905060008060008090505b600354811015610733576000925060008090505b8651811015610717576001600083815260200190815260200160002060009054906101000a900473ffffffffffffffffffffffffffffffffffffffff16925060008090505b6000808573ffffffffffffffffffffffffffffffffffffffff1673ffffffffffffffffffffffffffffffffffffffff168152602001908152602001600020805490508110156107095787828151811061069357fe5b60200260200101516000808673ffffffffffffffffffffffffffffffffffffffff1673ffffffffffffffffffffffffffffffffffffffff16815260200190815260200160002082815481106106e457fe5b906000526020600020015414156106fc576001850194505b808060010191505061063e565b5080806001019150506105f9565b50838310610726578293508194505b80806001019150506105e5565b508395505050505050919050565b82805482825590600052602060002090810192821561077d579160200282015b8281111561077c578251825591602001919060010190610761565b5b50905061078a919061078e565b5090565b6107b091905b808211156107ac576000816000905550600101610794565b5090565b9056fea265627a7a723158203db0b89e6a340a21e5b5796bb59c7bd299bd09db198c6520ca74cffec106073364736f6c63430005100032",
  "source": "pragma solidity ^0.5.0;\r\n\r\ncontract MyContract {\r\n    mapping(address => bytes32[]) services;\r\n    mapping(uint => address) addrs;\r\n    mapping(address => bool) hasRegisterd;\r\n    uint curIndex;\r\n    \r\n    \r\n    event Registered(\r\n        address addr,\r\n        bytes32[] service\r\n    );\r\n\r\n    constructor() public {\r\n        curIndex = 0;\r\n    }\r\n\r\n    function registerService(/*bytes32 name, */bytes memory params) public {\r\n        require(hasRegisterd[msg.sender] != true, \"You already registered.\");\r\n        bytes32[] memory arrDate = abi.decode(params, (bytes32[]));\r\n        services[msg.sender] = arrDate;\r\n        addrs[curIndex] = msg.sender;\r\n        hasRegisterd[msg.sender] = true;\r\n        curIndex = curIndex + 1;\r\n\r\n        emit Registered(msg.sender, arrDate);\r\n    }\r\n\r\n    function requestService(bytes memory params) public view returns (address) {\r\n        bytes32[] memory content = abi.decode(params, (bytes32[]));\r\n        address maxAddr;\r\n        uint maxCount = 0;\r\n        uint count;\r\n        address addr;\r\n        \r\n        for(uint i = 0; i < curIndex; i ++) {\r\n            count = 0;\r\n            for(uint j = 0; j < content.length; j ++) {\r\n                addr = addrs[i];\r\n                for(uint k = 0; k < services[addr].length; k ++) {\r\n                    if(services[addr][k] == content[j])\r\n                        count = count + 1;\r\n                }\r\n            }\r\n            if(count >= maxCount) {\r\n                maxCount = count;\r\n                maxAddr = addr;\r\n            }\r\n        }\r\n        return maxAddr;\r\n    }\r\n}",
  "sourcePath": "C:\\PrivateNetwork\\truffle-test\\contracts\\MyContract.sol",
  "compiler": {
    "name": "solc",
    "version": "0.5.16+commit.9c3226ce.Emscripten.clang"
  },
  "schemaVersion": "3.4.3",
  "updatedAt": "2022-05-24T04:21:17.292Z",
  "networkType": "ethereum",
  "devdoc": {
    "methods": {}
  },
  "userdoc": {
    "methods": {}
  }
}