{
  "contractName": "ServiceContract",
  "abi": [
    {
      "inputs": [],
      "payable": false,
      "stateMutability": "nonpayable",
      "type": "constructor"
    },
    {
      "anonymous": false,
      "inputs": [
        {
          "indexed": false,
          "internalType": "address",
          "name": "from",
          "type": "address"
        },
        {
          "indexed": false,
          "internalType": "address",
          "name": "to",
          "type": "address"
        },
        {
          "indexed": false,
          "internalType": "bytes32[]",
          "name": "services",
          "type": "bytes32[]"
        }
      ],
      "name": "Accepted",
      "type": "event"
    },
    {
      "anonymous": false,
      "inputs": [
        {
          "indexed": false,
          "internalType": "address",
          "name": "from",
          "type": "address"
        },
        {
          "indexed": false,
          "internalType": "address",
          "name": "to",
          "type": "address"
        },
        {
          "indexed": false,
          "internalType": "bytes32[]",
          "name": "services",
          "type": "bytes32[]"
        }
      ],
      "name": "Cancelled",
      "type": "event"
    },
    {
      "anonymous": false,
      "inputs": [
        {
          "indexed": false,
          "internalType": "address",
          "name": "from",
          "type": "address"
        },
        {
          "indexed": false,
          "internalType": "address",
          "name": "to",
          "type": "address"
        },
        {
          "indexed": false,
          "internalType": "bytes32[]",
          "name": "service",
          "type": "bytes32[]"
        },
        {
          "indexed": false,
          "internalType": "uint256[]",
          "name": "mark",
          "type": "uint256[]"
        }
      ],
      "name": "GiveFeedback",
      "type": "event"
    },
    {
      "anonymous": false,
      "inputs": [
        {
          "indexed": false,
          "internalType": "address",
          "name": "addr",
          "type": "address"
        },
        {
          "indexed": false,
          "internalType": "bytes32[]",
          "name": "service",
          "type": "bytes32[]"
        },
        {
          "indexed": false,
          "internalType": "uint256[]",
          "name": "prices",
          "type": "uint256[]"
        }
      ],
      "name": "Registered",
      "type": "event"
    },
    {
      "anonymous": false,
      "inputs": [
        {
          "indexed": false,
          "internalType": "address",
          "name": "from",
          "type": "address"
        },
        {
          "indexed": false,
          "internalType": "address",
          "name": "to",
          "type": "address"
        },
        {
          "indexed": false,
          "internalType": "bytes32[]",
          "name": "services",
          "type": "bytes32[]"
        }
      ],
      "name": "Rejected",
      "type": "event"
    },
    {
      "anonymous": false,
      "inputs": [
        {
          "indexed": false,
          "internalType": "address",
          "name": "from",
          "type": "address"
        },
        {
          "indexed": false,
          "internalType": "address",
          "name": "to",
          "type": "address"
        },
        {
          "indexed": false,
          "internalType": "bytes32[]",
          "name": "services",
          "type": "bytes32[]"
        }
      ],
      "name": "Requested",
      "type": "event"
    },
    {
      "constant": true,
      "inputs": [
        {
          "internalType": "uint256",
          "name": "",
          "type": "uint256"
        }
      ],
      "name": "service_names",
      "outputs": [
        {
          "internalType": "bytes32",
          "name": "",
          "type": "bytes32"
        }
      ],
      "payable": false,
      "stateMutability": "view",
      "type": "function"
    },
    {
      "constant": false,
      "inputs": [
        {
          "internalType": "bytes",
          "name": "params",
          "type": "bytes"
        },
        {
          "internalType": "bytes",
          "name": "params1",
          "type": "bytes"
        },
        {
          "internalType": "bytes",
          "name": "params2",
          "type": "bytes"
        }
      ],
      "name": "registerService",
      "outputs": [],
      "payable": false,
      "stateMutability": "nonpayable",
      "type": "function"
    },
    {
      "constant": true,
      "inputs": [
        {
          "internalType": "bytes",
          "name": "params",
          "type": "bytes"
        }
      ],
      "name": "findService",
      "outputs": [
        {
          "internalType": "uint256",
          "name": "",
          "type": "uint256"
        },
        {
          "internalType": "address[]",
          "name": "",
          "type": "address[]"
        },
        {
          "internalType": "address[]",
          "name": "",
          "type": "address[]"
        },
        {
          "internalType": "address[]",
          "name": "",
          "type": "address[]"
        }
      ],
      "payable": false,
      "stateMutability": "view",
      "type": "function"
    },
    {
      "constant": false,
      "inputs": [
        {
          "internalType": "address",
          "name": "to",
          "type": "address"
        },
        {
          "internalType": "bytes",
          "name": "params",
          "type": "bytes"
        },
        {
          "internalType": "bytes",
          "name": "params1",
          "type": "bytes"
        },
        {
          "internalType": "bytes",
          "name": "params2",
          "type": "bytes"
        },
        {
          "internalType": "bytes",
          "name": "params3",
          "type": "bytes"
        },
        {
          "internalType": "bytes",
          "name": "params4",
          "type": "bytes"
        },
        {
          "internalType": "bytes",
          "name": "params5",
          "type": "bytes"
        }
      ],
      "name": "requestService",
      "outputs": [],
      "payable": false,
      "stateMutability": "nonpayable",
      "type": "function"
    },
    {
      "constant": false,
      "inputs": [
        {
          "internalType": "address",
          "name": "req",
          "type": "address"
        },
        {
          "internalType": "uint256",
          "name": "index",
          "type": "uint256"
        },
        {
          "internalType": "bool",
          "name": "flag",
          "type": "bool"
        }
      ],
      "name": "acceptRequest",
      "outputs": [],
      "payable": false,
      "stateMutability": "nonpayable",
      "type": "function"
    },
    {
      "constant": true,
      "inputs": [],
      "name": "getWaitingList",
      "outputs": [
        {
          "internalType": "address[]",
          "name": "",
          "type": "address[]"
        },
        {
          "internalType": "bytes32[][]",
          "name": "",
          "type": "bytes32[][]"
        },
        {
          "internalType": "uint256[]",
          "name": "",
          "type": "uint256[]"
        }
      ],
      "payable": false,
      "stateMutability": "view",
      "type": "function"
    },
    {
      "constant": true,
      "inputs": [],
      "name": "getProgressList",
      "outputs": [
        {
          "internalType": "address[]",
          "name": "",
          "type": "address[]"
        },
        {
          "internalType": "bytes32[][]",
          "name": "",
          "type": "bytes32[][]"
        },
        {
          "internalType": "uint256[]",
          "name": "",
          "type": "uint256[]"
        }
      ],
      "payable": false,
      "stateMutability": "view",
      "type": "function"
    },
    {
      "constant": true,
      "inputs": [
        {
          "internalType": "uint256",
          "name": "index",
          "type": "uint256"
        }
      ],
      "name": "getCounts",
      "outputs": [
        {
          "internalType": "uint256[]",
          "name": "",
          "type": "uint256[]"
        },
        {
          "internalType": "uint256[]",
          "name": "",
          "type": "uint256[]"
        },
        {
          "internalType": "uint256[]",
          "name": "",
          "type": "uint256[]"
        },
        {
          "internalType": "uint256[]",
          "name": "",
          "type": "uint256[]"
        },
        {
          "internalType": "uint256[]",
          "name": "",
          "type": "uint256[]"
        }
      ],
      "payable": false,
      "stateMutability": "view",
      "type": "function"
    },
    {
      "constant": true,
      "inputs": [
        {
          "internalType": "uint256",
          "name": "index",
          "type": "uint256"
        }
      ],
      "name": "calcFB",
      "outputs": [
        {
          "internalType": "uint256[]",
          "name": "",
          "type": "uint256[]"
        },
        {
          "internalType": "uint256[]",
          "name": "",
          "type": "uint256[]"
        },
        {
          "internalType": "uint256[]",
          "name": "",
          "type": "uint256[]"
        },
        {
          "internalType": "uint256[]",
          "name": "",
          "type": "uint256[]"
        },
        {
          "internalType": "uint256[]",
          "name": "",
          "type": "uint256[]"
        }
      ],
      "payable": false,
      "stateMutability": "view",
      "type": "function"
    },
    {
      "constant": false,
      "inputs": [
        {
          "internalType": "uint256",
          "name": "index",
          "type": "uint256"
        },
        {
          "internalType": "bytes",
          "name": "param",
          "type": "bytes"
        },
        {
          "internalType": "bytes",
          "name": "param1",
          "type": "bytes"
        }
      ],
      "name": "giveFeedback",
      "outputs": [],
      "payable": false,
      "stateMutability": "nonpayable",
      "type": "function"
    },
    {
      "constant": false,
      "inputs": [
        {
          "internalType": "uint256",
          "name": "index",
          "type": "uint256"
        }
      ],
      "name": "getMarks",
      "outputs": [
        {
          "internalType": "uint256[]",
          "name": "",
          "type": "uint256[]"
        },
        {
          "internalType": "uint256[]",
          "name": "",
          "type": "uint256[]"
        }
      ],
      "payable": false,
      "stateMutability": "nonpayable",
      "type": "function"
    }
  ],
  "bytecode": "0x6080604052606460055534801561001557600080fd5b506153ed806100256000396000f3fe608060405234801561001057600080fd5b50600436106100a95760003560e01c80638092cd1d116100715780638092cd1d1461016a578063999518fa14610186578063be7239e6146101ba578063db956ec5146101ee578063e08ebf011461021e578063e64b76391461023a576100a9565b8063078d8cf8146100ae5780630e6573b6146100ce578063448fad40146100ff57806346e7922b146101325780636e1346ed1461014e575b600080fd5b6100b661025a565b6040516100c593929190614f12565b60405180910390f35b6100e860048036036100e391908101906149eb565b61095b565b6040516100f6929190614f5e565b60405180910390f35b61011960048036036101149190810190614913565b610c23565b6040516101299493929190615086565b60405180910390f35b61014c60048036036101479190810190614a14565b611279565b005b61016860048036036101639190810190614842565b611b2d565b005b610184600480360361017f9190810190614714565b6120dc565b005b6101a0600480360361019b91908101906149eb565b612a22565b6040516101b1959493929190614f95565b60405180910390f35b6101d460048036036101cf91908101906149eb565b613407565b6040516101e5959493929190614f95565b60405180910390f35b610208600480360361020391908101906149eb565b61376a565b604051610215919061500b565b60405180910390f35b61023860048036036102339190810190614954565b61378b565b005b610242613d63565b60405161025193929190614f12565b60405180910390f35b6060806060600080905060008090505b6004805490508110156104bd5760008090505b600360006004848154811061028e57fe5b9060005260206000200160009054906101000a900473ffffffffffffffffffffffffffffffffffffffff1673ffffffffffffffffffffffffffffffffffffffff1673ffffffffffffffffffffffffffffffffffffffff168152602001908152602001600020600101548110156104af576000600681111561030b57fe5b600360006004858154811061031c57fe5b9060005260206000200160009054906101000a900473ffffffffffffffffffffffffffffffffffffffff1673ffffffffffffffffffffffffffffffffffffffff1673ffffffffffffffffffffffffffffffffffffffff168152602001908152602001600020600001600083815260200190815260200160002060020160009054906101000a900460ff1660068111156103b157fe5b14801561049657503373ffffffffffffffffffffffffffffffffffffffff1660036000600485815481106103e157fe5b9060005260206000200160009054906101000a900473ffffffffffffffffffffffffffffffffffffffff1673ffffffffffffffffffffffffffffffffffffffff1673ffffffffffffffffffffffffffffffffffffffff168152602001908152602001600020600001600083815260200190815260200160002060000160009054906101000a900473ffffffffffffffffffffffffffffffffffffffff1673ffffffffffffffffffffffffffffffffffffffff16145b156104a2576001830192505b808060010191505061027d565b50808060010191505061026a565b506060816040519080825280602002602001820160405280156104ef5781602001602082028038833980820191505090505b5090506060826040519080825280602002602001820160405280156105235781602001602082028038833980820191505090505b50905060608360405190808252806020026020018201604052801561055c57816020015b60608152602001906001900390816105475790505b509050600080905060008090505b6004805490508110156109475760008090505b600360006004848154811061058e57fe5b9060005260206000200160009054906101000a900473ffffffffffffffffffffffffffffffffffffffff1673ffffffffffffffffffffffffffffffffffffffff1673ffffffffffffffffffffffffffffffffffffffff16815260200190815260200160002060010154811015610939576000600681111561060b57fe5b600360006004858154811061061c57fe5b9060005260206000200160009054906101000a900473ffffffffffffffffffffffffffffffffffffffff1673ffffffffffffffffffffffffffffffffffffffff1673ffffffffffffffffffffffffffffffffffffffff168152602001908152602001600020600001600083815260200190815260200160002060020160009054906101000a900460ff1660068111156106b157fe5b14801561079657503373ffffffffffffffffffffffffffffffffffffffff1660036000600485815481106106e157fe5b9060005260206000200160009054906101000a900473ffffffffffffffffffffffffffffffffffffffff1673ffffffffffffffffffffffffffffffffffffffff1673ffffffffffffffffffffffffffffffffffffffff168152602001908152602001600020600001600083815260200190815260200160002060000160009054906101000a900473ffffffffffffffffffffffffffffffffffffffff1673ffffffffffffffffffffffffffffffffffffffff16145b1561092c57600482815481106107a857fe5b9060005260206000200160009054906101000a900473ffffffffffffffffffffffffffffffffffffffff168684815181106107df57fe5b602002602001019073ffffffffffffffffffffffffffffffffffffffff16908173ffffffffffffffffffffffffffffffffffffffff16815250508085848151811061082657fe5b602002602001018181525050600360006004848154811061084357fe5b9060005260206000200160009054906101000a900473ffffffffffffffffffffffffffffffffffffffff1673ffffffffffffffffffffffffffffffffffffffff1673ffffffffffffffffffffffffffffffffffffffff168152602001908152602001600020600001600082815260200190815260200160002060010180548060200260200160405190810160405280929190818152602001828054801561090957602002820191906000526020600020905b8154815260200190600101908083116108f5575b505050505084848151811061091a57fe5b60200260200101819052506001830192505b808060010191505061057d565b50808060010191505061056a565b508382849750975097505050505050909192565b6060806000600360003373ffffffffffffffffffffffffffffffffffffffff1673ffffffffffffffffffffffffffffffffffffffff168152602001908152602001600020600001600085815260200190815260200160002060000160009054906101000a900473ffffffffffffffffffffffffffffffffffffffff1690506060600160008373ffffffffffffffffffffffffffffffffffffffff1673ffffffffffffffffffffffffffffffffffffffff16815260200190815260200160002060000180549050604051908082528060200260200182016040528015610a4f5781602001602082028038833980820191505090505b5090506060600160008473ffffffffffffffffffffffffffffffffffffffff1673ffffffffffffffffffffffffffffffffffffffff16815260200190815260200160002060000180549050604051908082528060200260200182016040528015610ac85781602001602082028038833980820191505090505b50905060008090505b600160008573ffffffffffffffffffffffffffffffffffffffff1673ffffffffffffffffffffffffffffffffffffffff16815260200190815260200160002060000180549050811015610c1457610b7f84600160008773ffffffffffffffffffffffffffffffffffffffff1673ffffffffffffffffffffffffffffffffffffffff1681526020019081526020016000206000018381548110610b6f57fe5b9060005260206000200154614218565b838281518110610b8b57fe5b602002602001018181525050600160008573ffffffffffffffffffffffffffffffffffffffff1673ffffffffffffffffffffffffffffffffffffffff1681526020019081526020016000206004018181548110610be457fe5b9060005260206000200154828281518110610bfb57fe5b6020026020010181815250508080600101915050610ad1565b50818194509450505050915091565b600060608060608085806020019051610c3f9190810190614891565b9050600080600090505b600280549050811015610c7157610c608184614313565b820191508080600101915050610c49565b50606081604051908082528060200260200182016040528015610ca35781602001602082028038833980820191505090505b509050606082604051908082528060200260200182016040528015610cd75781602001602082028038833980820191505090505b5090506000809050600080905060008090506000809050600080905060008090505b60028054905081101561100f576000809050600060028381548110610d1a57fe5b9060005260206000200160009054906101000a900473ffffffffffffffffffffffffffffffffffffffff1690506000809050600080905060008090505b8e51811015610eff5760008090505b600160008673ffffffffffffffffffffffffffffffffffffffff1673ffffffffffffffffffffffffffffffffffffffff16815260200190815260200160002060000180549050811015610ef1578f8281518110610dbf57fe5b6020026020010151600160008773ffffffffffffffffffffffffffffffffffffffff1673ffffffffffffffffffffffffffffffffffffffff1681526020019081526020016000206000018281548110610e1457fe5b90600052602060002001541415610ee457600186019550600160008673ffffffffffffffffffffffffffffffffffffffff1673ffffffffffffffffffffffffffffffffffffffff1681526020019081526020016000206001018181548110610e7857fe5b906000526020600020015484019350600160008673ffffffffffffffffffffffffffffffffffffffff1673ffffffffffffffffffffffffffffffffffffffff1681526020019081526020016000206004018181548110610ed457fe5b9060005260206000200154830192505b8080600101915050610d66565b508080600101915050610d57565b508d51841415610ffe57828c8b81518110610f1657fe5b602002602001019073ffffffffffffffffffffffffffffffffffffffff16908173ffffffffffffffffffffffffffffffffffffffff16815250508d518181610f5a57fe5b048b8b81518110610f6757fe5b60200260200101818152505063039387008b8b81518110610f8457fe5b602002602001015110610fa85760018701965085821115610fa3578195505b610ff7565b6301c9c3808b8b81518110610fb957fe5b602002602001015110610fd157600189019850610ff6565b629896808b8b81518110610fe157fe5b602002602001015110610ff5576001880197505b5b5b60018a0199505b505050508080600101915050610cf9565b506060836040519080825280602002602001820160405280156110415781602001602082028038833980820191505090505b5090506060856040519080825280602002602001820160405280156110755781602001602082028038833980820191505090505b5090506060846040519080825280602002602001820160405280156110a95781602001602082028038833980820191505090505b50905060009550600096506000945060008090505b888110156112595763039387008a82815181106110d757fe5b602002602001015110611149578a81815181106110f057fe5b602002602001015182878151811061110457fe5b602002602001019073ffffffffffffffffffffffffffffffffffffffff16908173ffffffffffffffffffffffffffffffffffffffff168152505060018601955061124c565b6301c9c3808a828151811061115a57fe5b6020026020010151106111cc578a818151811061117357fe5b602002602001015183898151811061118757fe5b602002602001019073ffffffffffffffffffffffffffffffffffffffff16908173ffffffffffffffffffffffffffffffffffffffff168152505060018801975061124b565b629896808a82815181106111dc57fe5b60200260200101511061124a578a81815181106111f557fe5b602002602001015184888151811061120957fe5b602002602001019073ffffffffffffffffffffffffffffffffffffffff16908173ffffffffffffffffffffffffffffffffffffffff16815250506001870196505b5b5b80806001019150506110be565b50838383839f509f509f509f505050505050505050505050509193509193565b60608280602001905161128f91908101906148d2565b90506060828060200190516112a791908101906148d2565b90506000600360003373ffffffffffffffffffffffffffffffffffffffff1673ffffffffffffffffffffffffffffffffffffffff168152602001908152602001600020600001600087815260200190815260200160002060000160009054906101000a900473ffffffffffffffffffffffffffffffffffffffff16905060008090505b83518110156114505783818151811061133f57fe5b6020026020010151600660003373ffffffffffffffffffffffffffffffffffffffff1673ffffffffffffffffffffffffffffffffffffffff16815260200190815260200160002060008473ffffffffffffffffffffffffffffffffffffffff1673ffffffffffffffffffffffffffffffffffffffff1681526020019081526020016000206000600360003373ffffffffffffffffffffffffffffffffffffffff1673ffffffffffffffffffffffffffffffffffffffff16815260200190815260200160002060000160008b8152602001908152602001600020600101848154811061142657fe5b9060005260206000200154815260200190815260200160002081905550808060010191505061132a565b506005600360003373ffffffffffffffffffffffffffffffffffffffff1673ffffffffffffffffffffffffffffffffffffffff168152602001908152602001600020600001600088815260200190815260200160002060020160006101000a81548160ff021916908360068111156114c457fe5b021790555060008090505b600160008373ffffffffffffffffffffffffffffffffffffffff1673ffffffffffffffffffffffffffffffffffffffff16815260200190815260200160002060000180549050811015611b245760008090505b600360003373ffffffffffffffffffffffffffffffffffffffff1673ffffffffffffffffffffffffffffffffffffffff168152602001908152602001600020600001600089815260200190815260200160002060010180549050811015611b1657600360003373ffffffffffffffffffffffffffffffffffffffff1673ffffffffffffffffffffffffffffffffffffffff168152602001908152602001600020600001600089815260200190815260200160002060010181815481106115e457fe5b9060005260206000200154600160008573ffffffffffffffffffffffffffffffffffffffff1673ffffffffffffffffffffffffffffffffffffffff168152602001908152602001600020600001838154811061163c57fe5b90600052602060002001541415611b09576003600160008573ffffffffffffffffffffffffffffffffffffffff1673ffffffffffffffffffffffffffffffffffffffff168152602001908152602001600020600301838154811061169c57fe5b906000526020600020015411156118825761170e83600160008673ffffffffffffffffffffffffffffffffffffffff1673ffffffffffffffffffffffffffffffffffffffff16815260200190815260200160002060000184815481106116fe57fe5b9060005260206000200154614218565b84838151811061171a57fe5b60200260200101516127100302600660003373ffffffffffffffffffffffffffffffffffffffff1673ffffffffffffffffffffffffffffffffffffffff16815260200190815260200160002060008573ffffffffffffffffffffffffffffffffffffffff1673ffffffffffffffffffffffffffffffffffffffff1681526020019081526020016000206000600160008773ffffffffffffffffffffffffffffffffffffffff1673ffffffffffffffffffffffffffffffffffffffff16815260200190815260200160002060000185815481106117f257fe5b906000526020600020015481526020019081526020016000205485848151811061181857fe5b60200260200101510201600160008573ffffffffffffffffffffffffffffffffffffffff1673ffffffffffffffffffffffffffffffffffffffff168152602001908152602001600020600401838154811061186f57fe5b9060005260206000200181905550611a53565b6118e383600160008673ffffffffffffffffffffffffffffffffffffffff1673ffffffffffffffffffffffffffffffffffffffff16815260200190815260200160002060000184815481106118d357fe5b9060005260206000200154614218565b8483815181106118ef57fe5b602002602001015102600660003373ffffffffffffffffffffffffffffffffffffffff1673ffffffffffffffffffffffffffffffffffffffff16815260200190815260200160002060008573ffffffffffffffffffffffffffffffffffffffff1673ffffffffffffffffffffffffffffffffffffffff1681526020019081526020016000206000600160008773ffffffffffffffffffffffffffffffffffffffff1673ffffffffffffffffffffffffffffffffffffffff16815260200190815260200160002060000185815481106119c357fe5b90600052602060002001548152602001908152602001600020548584815181106119e957fe5b6020026020010151612710030201600160008573ffffffffffffffffffffffffffffffffffffffff1673ffffffffffffffffffffffffffffffffffffffff1681526020019081526020016000206004018381548110611a4457fe5b90600052602060002001819055505b60018060008573ffffffffffffffffffffffffffffffffffffffff1673ffffffffffffffffffffffffffffffffffffffff1681526020019081526020016000206003018381548110611aa157fe5b906000526020600020015403600160008573ffffffffffffffffffffffffffffffffffffffff1673ffffffffffffffffffffffffffffffffffffffff1681526020019081526020016000206003018381548110611afa57fe5b90600052602060002001819055505b8080600101915050611522565b5080806001019150506114cf565b50505050505050565b6060600360008573ffffffffffffffffffffffffffffffffffffffff1673ffffffffffffffffffffffffffffffffffffffff1681526020019081526020016000206000016000848152602001908152602001600020600101805480602002602001604051908101604052809291908181526020018280548015611bcf57602002820191906000526020600020905b815481526020019060010190808311611bbb575b505050505090506001151582151514156120225760008090505b600160003373ffffffffffffffffffffffffffffffffffffffff1673ffffffffffffffffffffffffffffffffffffffff16815260200190815260200160002060000180549050811015611dc35760008090505b8251811015611db557828181518110611c5157fe5b6020026020010151600160003373ffffffffffffffffffffffffffffffffffffffff1673ffffffffffffffffffffffffffffffffffffffff1681526020019081526020016000206000018381548110611ca657fe5b90600052602060002001541415611da857600160003373ffffffffffffffffffffffffffffffffffffffff1673ffffffffffffffffffffffffffffffffffffffff1681526020019081526020016000206002018281548110611d0457fe5b9060005260206000200154600160003373ffffffffffffffffffffffffffffffffffffffff1673ffffffffffffffffffffffffffffffffffffffff1681526020019081526020016000206003018381548110611d5c57fe5b906000526020600020015410611da7576040517f08c379a0000000000000000000000000000000000000000000000000000000008152600401611d9e90615046565b60405180910390fd5b5b8080600101915050611c3c565b508080600101915050611be9565b506001600360008673ffffffffffffffffffffffffffffffffffffffff1673ffffffffffffffffffffffffffffffffffffffff168152602001908152602001600020600001600085815260200190815260200160002060020160006101000a81548160ff02191690836006811115611e3757fe5b021790555060008090505b600160003373ffffffffffffffffffffffffffffffffffffffff1673ffffffffffffffffffffffffffffffffffffffff16815260200190815260200160002060000180549050811015611fe15760008090505b8251811015611fd357828181518110611eaa57fe5b6020026020010151600160003373ffffffffffffffffffffffffffffffffffffffff1673ffffffffffffffffffffffffffffffffffffffff1681526020019081526020016000206000018381548110611eff57fe5b90600052602060002001541415611fc65760018060003373ffffffffffffffffffffffffffffffffffffffff1673ffffffffffffffffffffffffffffffffffffffff1681526020019081526020016000206003018381548110611f5e57fe5b906000526020600020015401600160003373ffffffffffffffffffffffffffffffffffffffff1673ffffffffffffffffffffffffffffffffffffffff1681526020019081526020016000206003018381548110611fb757fe5b90600052602060002001819055505b8080600101915050611e95565b508080600101915050611e42565b507f373213431f67b1076392747500d433ce091f4bb4ab55c66f391776c149118dc684338360405161201593929190614ed4565b60405180910390a16120d6565b6002600360008673ffffffffffffffffffffffffffffffffffffffff1673ffffffffffffffffffffffffffffffffffffffff168152602001908152602001600020600001600085815260200190815260200160002060020160006101000a81548160ff0219169083600681111561209557fe5b02179055507fe688a7ab89eb3fda876e1e356922a48d4da65ab6111abffe9730b1096efc1a828433836040516120cd93929190614ed4565b60405180910390a15b50505050565b6060868060200190516120f29190810190614891565b905060008090505b600160008a73ffffffffffffffffffffffffffffffffffffffff1673ffffffffffffffffffffffffffffffffffffffff168152602001908152602001600020600001805490508110156122d45760008090505b82518110156122c65782818151811061216257fe5b6020026020010151600160008c73ffffffffffffffffffffffffffffffffffffffff1673ffffffffffffffffffffffffffffffffffffffff16815260200190815260200160002060000183815481106121b757fe5b906000526020600020015414156122b957600160008b73ffffffffffffffffffffffffffffffffffffffff1673ffffffffffffffffffffffffffffffffffffffff168152602001908152602001600020600201828154811061221557fe5b9060005260206000200154600160008c73ffffffffffffffffffffffffffffffffffffffff1673ffffffffffffffffffffffffffffffffffffffff168152602001908152602001600020600301838154811061226d57fe5b9060005260206000200154106122b8576040517f08c379a00000000000000000000000000000000000000000000000000000000081526004016122af90615066565b60405180910390fd5b5b808060010191505061214d565b5080806001019150506120fa565b5060011515600360003373ffffffffffffffffffffffffffffffffffffffff1673ffffffffffffffffffffffffffffffffffffffff16815260200190815260200160002060020160009054906101000a900460ff161515146123f25760043390806001815401808255809150509060018203906000526020600020016000909192909190916101000a81548173ffffffffffffffffffffffffffffffffffffffff021916908373ffffffffffffffffffffffffffffffffffffffff160217905550506001600360003373ffffffffffffffffffffffffffffffffffffffff1673ffffffffffffffffffffffffffffffffffffffff16815260200190815260200160002060020160006101000a81548160ff0219169083151502179055505b6000600360003373ffffffffffffffffffffffffffffffffffffffff1673ffffffffffffffffffffffffffffffffffffffff16815260200190815260200160002060010154905088600360003373ffffffffffffffffffffffffffffffffffffffff1673ffffffffffffffffffffffffffffffffffffffff168152602001908152602001600020600001600083815260200190815260200160002060000160006101000a81548173ffffffffffffffffffffffffffffffffffffffff021916908373ffffffffffffffffffffffffffffffffffffffff16021790555081600360003373ffffffffffffffffffffffffffffffffffffffff1673ffffffffffffffffffffffffffffffffffffffff1681526020019081526020016000206000016000838152602001908152602001600020600101908051906020019061253892919061446d565b506000600360003373ffffffffffffffffffffffffffffffffffffffff1673ffffffffffffffffffffffffffffffffffffffff168152602001908152602001600020600001600083815260200190815260200160002060020160006101000a81548160ff021916908360068111156125ac57fe5b0217905550868060200190516125c591908101906148d2565b600360003373ffffffffffffffffffffffffffffffffffffffff1673ffffffffffffffffffffffffffffffffffffffff1681526020019081526020016000206000016000838152602001908152602001600020600301908051906020019061262e9291906144ba565b508580602001905161264391908101906148d2565b600360003373ffffffffffffffffffffffffffffffffffffffff1673ffffffffffffffffffffffffffffffffffffffff168152602001908152602001600020600001600083815260200190815260200160002060040190805190602001906126ac9291906144ba565b50848060200190516126c191908101906148d2565b600360003373ffffffffffffffffffffffffffffffffffffffff1673ffffffffffffffffffffffffffffffffffffffff1681526020019081526020016000206000016000838152602001908152602001600020600501908051906020019061272a9291906144ba565b508380602001905161273f91908101906148d2565b600360003373ffffffffffffffffffffffffffffffffffffffff1673ffffffffffffffffffffffffffffffffffffffff168152602001908152602001600020600001600083815260200190815260200160002060060190805190602001906127a89291906144ba565b50828060200190516127bd91908101906148d2565b600360003373ffffffffffffffffffffffffffffffffffffffff1673ffffffffffffffffffffffffffffffffffffffff168152602001908152602001600020600001600083815260200190815260200160002060070190805190602001906128269291906144ba565b5081516040519080825280602002602001820160405280156128575781602001602082028038833980820191505090505b50600360003373ffffffffffffffffffffffffffffffffffffffff1673ffffffffffffffffffffffffffffffffffffffff168152602001908152602001600020600001600083815260200190815260200160002060080190805190602001906128c19291906144ba565b5060008090505b825181101561294f576000600360003373ffffffffffffffffffffffffffffffffffffffff1673ffffffffffffffffffffffffffffffffffffffff1681526020019081526020016000206000016000848152602001908152602001600020600801828154811061293457fe5b906000526020600020018190555080806001019150506128c8565b506001600360003373ffffffffffffffffffffffffffffffffffffffff1673ffffffffffffffffffffffffffffffffffffffff1681526020019081526020016000206001015401600360003373ffffffffffffffffffffffffffffffffffffffff1673ffffffffffffffffffffffffffffffffffffffff168152602001908152602001600020600101819055507f9cd430c31294aedcc89738a62abe5131bdd7b37e808596169bb9001c314e0ad5338a84604051612a0f93929190614e51565b60405180910390a1505050505050505050565b606080606080606080600360003373ffffffffffffffffffffffffffffffffffffffff1673ffffffffffffffffffffffffffffffffffffffff1681526020019081526020016000206000016000888152602001908152602001600020600101805480602002602001604051908101604052809291908181526020018280548015612acb57602002820191906000526020600020905b815481526020019060010190808311612ab7575b5050505050905060608151604051908082528060200260200182016040528015612b045781602001602082028038833980820191505090505b50905060608251604051908082528060200260200182016040528015612b395781602001602082028038833980820191505090505b50905060608351604051908082528060200260200182016040528015612b6e5781602001602082028038833980820191505090505b50905060608451604051908082528060200260200182016040528015612ba35781602001602082028038833980820191505090505b5090506000600360003373ffffffffffffffffffffffffffffffffffffffff1673ffffffffffffffffffffffffffffffffffffffff16815260200190815260200160002060000160008d815260200190815260200160002060000160009054906101000a900473ffffffffffffffffffffffffffffffffffffffff16905060008090505b8651811015613355576000868281518110612c3e57fe5b6020026020010181815250506000858281518110612c5857fe5b6020026020010181815250506000848281518110612c7257fe5b6020026020010181815250506032838281518110612c8c57fe5b60200260200101818152505060008090505b600360003373ffffffffffffffffffffffffffffffffffffffff1673ffffffffffffffffffffffffffffffffffffffff168152602001908152602001600020600101548110156133475760008090505b600360003373ffffffffffffffffffffffffffffffffffffffff1673ffffffffffffffffffffffffffffffffffffffff16815260200190815260200160002060000160008381526020019081526020016000206001018054905081101561333957888381518110612d5b57fe5b6020026020010151600360003373ffffffffffffffffffffffffffffffffffffffff1673ffffffffffffffffffffffffffffffffffffffff16815260200190815260200160002060000160008481526020019081526020016000206001018281548110612dc457fe5b9060005260206000200154141561332c5760016006811115612de257fe5b600360003373ffffffffffffffffffffffffffffffffffffffff1673ffffffffffffffffffffffffffffffffffffffff168152602001908152602001600020600001600084815260200190815260200160002060020160009054906101000a900460ff166006811115612e5157fe5b1480612ed6575060036006811115612e6557fe5b600360003373ffffffffffffffffffffffffffffffffffffffff1673ffffffffffffffffffffffffffffffffffffffff168152602001908152602001600020600001600084815260200190815260200160002060020160009054906101000a900460ff166006811115612ed457fe5b145b15612fe5576001878481518110612ee957fe5b602002602001015101878481518110612efe57fe5b6020026020010181815250508373ffffffffffffffffffffffffffffffffffffffff16600360003373ffffffffffffffffffffffffffffffffffffffff1673ffffffffffffffffffffffffffffffffffffffff168152602001908152602001600020600001600084815260200190815260200160002060000160009054906101000a900473ffffffffffffffffffffffffffffffffffffffff1673ffffffffffffffffffffffffffffffffffffffff161415612fe4576001888481518110612fc257fe5b602002602001015101888481518110612fd757fe5b6020026020010181815250505b5b60056006811115612ff257fe5b600360003373ffffffffffffffffffffffffffffffffffffffff1673ffffffffffffffffffffffffffffffffffffffff168152602001908152602001600020600001600084815260200190815260200160002060020160009054906101000a900460ff16600681111561306157fe5b14801561310f57508373ffffffffffffffffffffffffffffffffffffffff16600360003373ffffffffffffffffffffffffffffffffffffffff1673ffffffffffffffffffffffffffffffffffffffff168152602001908152602001600020600001600084815260200190815260200160002060000160009054906101000a900473ffffffffffffffffffffffffffffffffffffffff1673ffffffffffffffffffffffffffffffffffffffff16145b1561332b5785838151811061312057fe5b6020026020010151600360003373ffffffffffffffffffffffffffffffffffffffff1673ffffffffffffffffffffffffffffffffffffffff1681526020019081526020016000206000016000848152602001908152602001600020600801828154811061318957fe5b9060005260206000200154111561321f57600360003373ffffffffffffffffffffffffffffffffffffffff1673ffffffffffffffffffffffffffffffffffffffff168152602001908152602001600020600001600083815260200190815260200160002060080181815481106131fb57fe5b906000526020600020015486848151811061321257fe5b6020026020010181815250505b84838151811061322b57fe5b6020026020010151600360003373ffffffffffffffffffffffffffffffffffffffff1673ffffffffffffffffffffffffffffffffffffffff1681526020019081526020016000206000016000848152602001908152602001600020600801828154811061329457fe5b9060005260206000200154101561332a57600360003373ffffffffffffffffffffffffffffffffffffffff1673ffffffffffffffffffffffffffffffffffffffff1681526020019081526020016000206000016000838152602001908152602001600020600801818154811061330657fe5b906000526020600020015485848151811061331d57fe5b6020026020010181815250505b5b5b8080600101915050612cee565b508080600101915050612c9e565b508080600101915050612c27565b5084848484600160008673ffffffffffffffffffffffffffffffffffffffff1673ffffffffffffffffffffffffffffffffffffffff168152602001908152602001600020600301808054806020026020016040519081016040528092919081815260200182805480156133e757602002820191906000526020600020905b8154815260200190600101908083116133d3575b505050505090509a509a509a509a509a5050505050505091939590929450565b6060806060806060600360003373ffffffffffffffffffffffffffffffffffffffff1673ffffffffffffffffffffffffffffffffffffffff1681526020019081526020016000206000016000878152602001908152602001600020600301600360003373ffffffffffffffffffffffffffffffffffffffff1673ffffffffffffffffffffffffffffffffffffffff1681526020019081526020016000206000016000888152602001908152602001600020600401600360003373ffffffffffffffffffffffffffffffffffffffff1673ffffffffffffffffffffffffffffffffffffffff1681526020019081526020016000206000016000898152602001908152602001600020600501600360003373ffffffffffffffffffffffffffffffffffffffff1673ffffffffffffffffffffffffffffffffffffffff16815260200190815260200160002060000160008a8152602001908152602001600020600601600360003373ffffffffffffffffffffffffffffffffffffffff1673ffffffffffffffffffffffffffffffffffffffff16815260200190815260200160002060000160008b81526020019081526020016000206007018480548060200260200160405190810160405280929190818152602001828054801561360857602002820191906000526020600020905b8154815260200190600101908083116135f4575b505050505094508380548060200260200160405190810160405280929190818152602001828054801561365a57602002820191906000526020600020905b815481526020019060010190808311613646575b50505050509350828054806020026020016040519081016040528092919081815260200182805480156136ac57602002820191906000526020600020905b815481526020019060010190808311613698575b50505050509250818054806020026020016040519081016040528092919081815260200182805480156136fe57602002820191906000526020600020905b8154815260200190600101908083116136ea575b505050505091508080548060200260200160405190810160405280929190818152602001828054801561375057602002820191906000526020600020905b81548152602001906001019080831161373c575b505050505090509450945094509450945091939590929450565b6000818154811061377757fe5b906000526020600020016000915090505481565b60011515600160003373ffffffffffffffffffffffffffffffffffffffff1673ffffffffffffffffffffffffffffffffffffffff16815260200190815260200160002060050160009054906101000a900460ff1615151415613822576040517f08c379a000000000000000000000000000000000000000000000000000000000815260040161381990615026565b60405180910390fd5b6060838060200190516138389190810190614891565b905060608380602001905161385091908101906148d2565b905060608380602001905161386891908101906148d2565b905060008090505b825181101561392f576000809050600090505b6000805490508110156138d45784828151811061389c57fe5b6020026020010151600082815481106138b157fe5b906000526020600020015414156138c7576138d4565b8080600101915050613883565b6000805490508114156139215760008583815181106138ef57fe5b602002602001015190806001815401808255809150509060018203906000526020600020016000909192909190915055505b508080600101915050613870565b5082600160003373ffffffffffffffffffffffffffffffffffffffff1673ffffffffffffffffffffffffffffffffffffffff168152602001908152602001600020600001908051906020019061398692919061446d565b5081600160003373ffffffffffffffffffffffffffffffffffffffff1673ffffffffffffffffffffffffffffffffffffffff16815260200190815260200160002060010190805190602001906139dd9291906144ba565b5080600160003373ffffffffffffffffffffffffffffffffffffffff1673ffffffffffffffffffffffffffffffffffffffff1681526020019081526020016000206002019080519060200190613a349291906144ba565b5060023390806001815401808255809150509060018203906000526020600020016000909192909190916101000a81548173ffffffffffffffffffffffffffffffffffffffff021916908373ffffffffffffffffffffffffffffffffffffffff1602179055505060018060003373ffffffffffffffffffffffffffffffffffffffff1673ffffffffffffffffffffffffffffffffffffffff16815260200190815260200160002060050160006101000a81548160ff0219169083151502179055508251604051908082528060200260200182016040528015613b255781602001602082028038833980820191505090505b50600160003373ffffffffffffffffffffffffffffffffffffffff1673ffffffffffffffffffffffffffffffffffffffff1681526020019081526020016000206003019080519060200190613b7b9291906144ba565b508251604051908082528060200260200182016040528015613bac5781602001602082028038833980820191505090505b50600160003373ffffffffffffffffffffffffffffffffffffffff1673ffffffffffffffffffffffffffffffffffffffff1681526020019081526020016000206004019080519060200190613c029291906144ba565b5060008090505b600160003373ffffffffffffffffffffffffffffffffffffffff1673ffffffffffffffffffffffffffffffffffffffff16815260200190815260200160002060000180549050811015613d1f576000600160003373ffffffffffffffffffffffffffffffffffffffff1673ffffffffffffffffffffffffffffffffffffffff1681526020019081526020016000206003018281548110613ca557fe5b906000526020600020018190555062989680600160003373ffffffffffffffffffffffffffffffffffffffff1673ffffffffffffffffffffffffffffffffffffffff1681526020019081526020016000206004018281548110613d0457fe5b90600052602060002001819055508080600101915050613c09565b507fb39863fda594a4cf0d92745eb4cf9543de2d98727e180984cc434a8b17d3f212338484604051613d5393929190614e8f565b60405180910390a1505050505050565b6060806060600080905060008090505b600360003373ffffffffffffffffffffffffffffffffffffffff1673ffffffffffffffffffffffffffffffffffffffff16815260200190815260200160002060010154811015613ed75760016006811115613dca57fe5b600360003373ffffffffffffffffffffffffffffffffffffffff1673ffffffffffffffffffffffffffffffffffffffff168152602001908152602001600020600001600083815260200190815260200160002060020160009054906101000a900460ff166006811115613e3957fe5b1480613ebe575060036006811115613e4d57fe5b600360003373ffffffffffffffffffffffffffffffffffffffff1673ffffffffffffffffffffffffffffffffffffffff168152602001908152602001600020600001600083815260200190815260200160002060020160009054906101000a900460ff166006811115613ebc57fe5b145b15613eca576001820191505b8080600101915050613d73565b50606081604051908082528060200260200182016040528015613f095781602001602082028038833980820191505090505b509050606082604051908082528060200260200182016040528015613f3d5781602001602082028038833980820191505090505b509050606083604051908082528060200260200182016040528015613f7657816020015b6060815260200190600190039081613f615790505b509050600080905060008090505b600360003373ffffffffffffffffffffffffffffffffffffffff1673ffffffffffffffffffffffffffffffffffffffff168152602001908152602001600020600101548110156142045760016006811115613fdb57fe5b600360003373ffffffffffffffffffffffffffffffffffffffff1673ffffffffffffffffffffffffffffffffffffffff168152602001908152602001600020600001600083815260200190815260200160002060020160009054906101000a900460ff16600681111561404a57fe5b14806140cf57506003600681111561405e57fe5b600360003373ffffffffffffffffffffffffffffffffffffffff1673ffffffffffffffffffffffffffffffffffffffff168152602001908152602001600020600001600083815260200190815260200160002060020160009054906101000a900460ff1660068111156140cd57fe5b145b156141f757338583815181106140e157fe5b602002602001019073ffffffffffffffffffffffffffffffffffffffff16908173ffffffffffffffffffffffffffffffffffffffff16815250508084838151811061412857fe5b602002602001018181525050600360003373ffffffffffffffffffffffffffffffffffffffff1673ffffffffffffffffffffffffffffffffffffffff16815260200190815260200160002060000160008281526020019081526020016000206001018054806020026020016040519081016040528092919081815260200182805480156141d457602002820191906000526020600020905b8154815260200190600101908083116141c0575b50505050508383815181106141e557fe5b60200260200101819052506001820191505b8080600101915050613f84565b508382849750975097505050505050909192565b6000806000905060008090505b60048054905081101561430857600660006004838154811061424357fe5b9060005260206000200160009054906101000a900473ffffffffffffffffffffffffffffffffffffffff1673ffffffffffffffffffffffffffffffffffffffff1673ffffffffffffffffffffffffffffffffffffffff16815260200190815260200160002060008673ffffffffffffffffffffffffffffffffffffffff1673ffffffffffffffffffffffffffffffffffffffff168152602001908152602001600020600085815260200190815260200160002054820191508080600101915050614225565b508091505092915050565b6000806002848154811061432357fe5b9060005260206000200160009054906101000a900473ffffffffffffffffffffffffffffffffffffffff169050600080905060008090505b845181101561444b5760008090505b600160008573ffffffffffffffffffffffffffffffffffffffff1673ffffffffffffffffffffffffffffffffffffffff1681526020019081526020016000206000018054905081101561443d578582815181106143c357fe5b6020026020010151600160008673ffffffffffffffffffffffffffffffffffffffff1673ffffffffffffffffffffffffffffffffffffffff168152602001908152602001600020600001828154811061441857fe5b90600052602060002001541415614430576001830192505b808060010191505061436a565b50808060010191505061435b565b50835181141561446057600192505050614467565b6000925050505b92915050565b8280548282559060005260206000209081019282156144a9579160200282015b828111156144a857825182559160200191906001019061448d565b5b5090506144b69190614507565b5090565b8280548282559060005260206000209081019282156144f6579160200282015b828111156144f55782518255916020019190600101906144da565b5b509050614503919061452c565b5090565b61452991905b8082111561452557600081600090555060010161450d565b5090565b90565b61454e91905b8082111561454a576000816000905550600101614532565b5090565b90565b6000813590506145608161534e565b92915050565b600082601f83011261457757600080fd5b815161458a6145858261510d565b6150e0565b915081818352602084019350602081019050838560208402820111156145af57600080fd5b60005b838110156145df57816145c58882614681565b8452602084019350602083019250506001810190506145b2565b5050505092915050565b600082601f8301126145fa57600080fd5b815161460d61460882615135565b6150e0565b9150818183526020840193506020810190508385602084028201111561463257600080fd5b60005b83811015614662578161464888826146ff565b845260208401935060208301925050600181019050614635565b5050505092915050565b60008135905061467b81615365565b92915050565b6000815190506146908161537c565b92915050565b600082601f8301126146a757600080fd5b81356146ba6146b58261515d565b6150e0565b915080825260208301602083018583830111156146d657600080fd5b6146e183828461533f565b50505092915050565b6000813590506146f981615393565b92915050565b60008151905061470e81615393565b92915050565b600080600080600080600060e0888a03121561472f57600080fd5b600061473d8a828b01614551565b975050602088013567ffffffffffffffff81111561475a57600080fd5b6147668a828b01614696565b965050604088013567ffffffffffffffff81111561478357600080fd5b61478f8a828b01614696565b955050606088013567ffffffffffffffff8111156147ac57600080fd5b6147b88a828b01614696565b945050608088013567ffffffffffffffff8111156147d557600080fd5b6147e18a828b01614696565b93505060a088013567ffffffffffffffff8111156147fe57600080fd5b61480a8a828b01614696565b92505060c088013567ffffffffffffffff81111561482757600080fd5b6148338a828b01614696565b91505092959891949750929550565b60008060006060848603121561485757600080fd5b600061486586828701614551565b9350506020614876868287016146ea565b92505060406148878682870161466c565b9150509250925092565b6000602082840312156148a357600080fd5b600082015167ffffffffffffffff8111156148bd57600080fd5b6148c984828501614566565b91505092915050565b6000602082840312156148e457600080fd5b600082015167ffffffffffffffff8111156148fe57600080fd5b61490a848285016145e9565b91505092915050565b60006020828403121561492557600080fd5b600082013567ffffffffffffffff81111561493f57600080fd5b61494b84828501614696565b91505092915050565b60008060006060848603121561496957600080fd5b600084013567ffffffffffffffff81111561498357600080fd5b61498f86828701614696565b935050602084013567ffffffffffffffff8111156149ac57600080fd5b6149b886828701614696565b925050604084013567ffffffffffffffff8111156149d557600080fd5b6149e186828701614696565b9150509250925092565b6000602082840312156149fd57600080fd5b6000614a0b848285016146ea565b91505092915050565b600080600060608486031215614a2957600080fd5b6000614a37868287016146ea565b935050602084013567ffffffffffffffff811115614a5457600080fd5b614a6086828701614696565b925050604084013567ffffffffffffffff811115614a7d57600080fd5b614a8986828701614696565b9150509250925092565b6000614a9f8383614afe565b60208301905092915050565b6000614ab78383614c4d565b905092915050565b6000614acb8383614d09565b60208301905092915050565b6000614ae38383614e33565b60208301905092915050565b614af881615309565b82525050565b614b07816152b7565b82525050565b614b16816152b7565b82525050565b6000614b27826151d9565b614b318185615251565b9350614b3c83615189565b8060005b83811015614b6d578151614b548882614a93565b9750614b5f83615210565b925050600181019050614b40565b5085935050505092915050565b6000614b85826151e4565b614b8f8185615262565b935083602082028501614ba185615199565b8060005b85811015614bdd5784840389528151614bbe8582614aab565b9450614bc98361521d565b925060208a01995050600181019050614ba5565b50829750879550505050505092915050565b6000614bfa826151fa565b614c048185615284565b9350614c0f836151b9565b8060005b83811015614c40578151614c278882614abf565b9750614c3283615237565b925050600181019050614c13565b5085935050505092915050565b6000614c58826151ef565b614c628185615273565b9350614c6d836151a9565b8060005b83811015614c9e578151614c858882614abf565b9750614c908361522a565b925050600181019050614c71565b5085935050505092915050565b6000614cb682615205565b614cc08185615295565b9350614ccb836151c9565b8060005b83811015614cfc578151614ce38882614ad7565b9750614cee83615244565b925050600181019050614ccf565b5085935050505092915050565b614d12816152d5565b82525050565b614d21816152d5565b82525050565b6000614d34601b836152a6565b91507f4163636f756e7420616c726561647920726567697374657265642e00000000006000830152602082019050919050565b6000614d746035836152a6565b91507f50726f76696465722063616e6e6f74206163636570742074686520726571756560008301527f73742c20706c656173652072656a6563742069742100000000000000000000006020830152604082019050919050565b6000614dda6021836152a6565b91507f50726f76696465722063616e6e6f742070726f7669646520612073657276696360008301527f65000000000000000000000000000000000000000000000000000000000000006020830152604082019050919050565b614e3c816152ff565b82525050565b614e4b816152ff565b82525050565b6000606082019050614e666000830186614aef565b614e736020830185614b0d565b8181036040830152614e858184614bef565b9050949350505050565b6000606082019050614ea46000830186614aef565b8181036020830152614eb68185614bef565b90508181036040830152614eca8184614cab565b9050949350505050565b6000606082019050614ee96000830186614b0d565b614ef66020830185614aef565b8181036040830152614f088184614bef565b9050949350505050565b60006060820190508181036000830152614f2c8186614b1c565b90508181036020830152614f408185614b7a565b90508181036040830152614f548184614cab565b9050949350505050565b60006040820190508181036000830152614f788185614cab565b90508181036020830152614f8c8184614cab565b90509392505050565b600060a0820190508181036000830152614faf8188614cab565b90508181036020830152614fc38187614cab565b90508181036040830152614fd78186614cab565b90508181036060830152614feb8185614cab565b90508181036080830152614fff8184614cab565b90509695505050505050565b60006020820190506150206000830184614d18565b92915050565b6000602082019050818103600083015261503f81614d27565b9050919050565b6000602082019050818103600083015261505f81614d67565b9050919050565b6000602082019050818103600083015261507f81614dcd565b9050919050565b600060808201905061509b6000830187614e42565b81810360208301526150ad8186614b1c565b905081810360408301526150c18185614b1c565b905081810360608301526150d58184614b1c565b905095945050505050565b6000604051905081810181811067ffffffffffffffff8211171561510357600080fd5b8060405250919050565b600067ffffffffffffffff82111561512457600080fd5b602082029050602081019050919050565b600067ffffffffffffffff82111561514c57600080fd5b602082029050602081019050919050565b600067ffffffffffffffff82111561517457600080fd5b601f19601f8301169050602081019050919050565b6000819050602082019050919050565b6000819050602082019050919050565b6000819050602082019050919050565b6000819050602082019050919050565b6000819050602082019050919050565b600081519050919050565b600081519050919050565b600081519050919050565b600081519050919050565b600081519050919050565b6000602082019050919050565b6000602082019050919050565b6000602082019050919050565b6000602082019050919050565b6000602082019050919050565b600082825260208201905092915050565b600082825260208201905092915050565b600082825260208201905092915050565b600082825260208201905092915050565b600082825260208201905092915050565b600082825260208201905092915050565b60006152c2826152df565b9050919050565b60008115159050919050565b6000819050919050565b600073ffffffffffffffffffffffffffffffffffffffff82169050919050565b6000819050919050565b60006153148261531b565b9050919050565b60006153268261532d565b9050919050565b6000615338826152df565b9050919050565b82818337600083830152505050565b615357816152b7565b811461536257600080fd5b50565b61536e816152c9565b811461537957600080fd5b50565b615385816152d5565b811461539057600080fd5b50565b61539c816152ff565b81146153a757600080fd5b5056fea365627a7a72315820df915b45677d22fd70b830a1ee8b35d36f2859cbe2628c3d21ce00b4911f783d6c6578706572696d656e74616cf564736f6c63430005100040",
  "source": "// SPDX-License-Identifier: MIT\r\npragma solidity >=0.4.22 <0.9.0;\r\npragma experimental ABIEncoderV2;\r\n\r\ncontract ServiceContract {\r\n\r\n    enum Status {\r\n        Requested,\r\n        Accepted,\r\n        Rejected,\r\n        Accept_Viewed,\r\n        Reject_Viewed,\r\n        Finished,\r\n        Cancelled\r\n    }\r\n    \r\n    struct Provider {\r\n        bytes32[] services;\r\n        uint256[] prices;\r\n        uint256[] maxCount;\r\n        uint256[] curCount;\r\n        uint256[] totalTrust;\r\n        bool hasRegisterd;\r\n    }\r\n\r\n    struct Request {\r\n        address provider;\r\n        bytes32[] services;\r\n        Status status;\r\n        uint256[] Av;\r\n        uint256[] A;\r\n        uint256[] R;\r\n        uint256[] Cr;\r\n        uint256[] C;\r\n        uint256[] feedback;\r\n    }\r\n\r\n    struct Requester {\r\n        mapping(uint256 => Request) requests;\r\n        uint256 req_count;\r\n        bool hasRegisterd;\r\n    }\r\n\r\n    bytes32[] public service_names;\r\n\r\n    mapping(address => Provider) private providers;\r\n    address[] private provider_addrs;\r\n\r\n    mapping(address => Requester) private requesters;\r\n    address[] private requester_addrs;\r\n    \r\n    uint private constant multiplier = 10 ** 18;\r\n\r\n    uint256 private limitFee = 100;\r\n\r\n    mapping(address => mapping(address => mapping(bytes32 => uint256))) reputation;\r\n    \r\n    event Registered(\r\n        address addr,\r\n        bytes32[] service,\r\n        uint256[] prices\r\n    );\r\n\r\n    event GiveFeedback(\r\n        address from,\r\n        address to,\r\n        bytes32[] service,\r\n        uint256[] mark\r\n    );\r\n\r\n    event Requested(\r\n        address from,\r\n        address to,\r\n        bytes32[] services\r\n    );\r\n\r\n    event Accepted(\r\n        address from,\r\n        address to,\r\n        bytes32[] services\r\n    );\r\n\r\n    event Rejected(\r\n        address from,\r\n        address to,\r\n        bytes32[] services\r\n    );\r\n\r\n    event Cancelled(\r\n        address from,\r\n        address to,\r\n        bytes32[] services\r\n    );\r\n\r\n    constructor() public {}\r\n\r\n    function registerService(\r\n        bytes memory params,\r\n        bytes memory params1,\r\n        bytes memory params2\r\n    ) public  {\r\n        require(providers[msg.sender].hasRegisterd != true, \"Account already registered.\");\r\n        bytes32[] memory arrData = abi.decode(params, (bytes32[]));\r\n        uint256[] memory pData = abi.decode(params1, (uint256[]));\r\n        uint256[] memory mData = abi.decode(params2, (uint256[]));\r\n\r\n        for(uint256 i = 0;i < pData.length;i ++) {\r\n            uint256 j = 0;\r\n            for(j = 0;j < service_names.length;j ++)\r\n                if(service_names[j] == arrData[i])\r\n                    break;\r\n            if(j == service_names.length)\r\n                service_names.push(arrData[i]);\r\n        }\r\n\r\n        providers[msg.sender].services = arrData;\r\n        providers[msg.sender].prices = pData;\r\n        providers[msg.sender].maxCount = mData;\r\n        provider_addrs.push(msg.sender);\r\n        providers[msg.sender].hasRegisterd = true;\r\n\r\n        providers[msg.sender].curCount = new uint256[](arrData.length);\r\n        providers[msg.sender].totalTrust = new uint256[](arrData.length);\r\n\r\n        for(uint256 i = 0;i < providers[msg.sender].services.length; i ++) {\r\n            providers[msg.sender].curCount[i] = 0;\r\n            providers[msg.sender].totalTrust[i] = 10 ** 7;\r\n        }\r\n\r\n        emit Registered(msg.sender, arrData, pData);\r\n    }\r\n\r\n    function _isCandidate(\r\n        uint256 cur,\r\n        bytes32[] memory content\r\n    ) private view returns(uint256) {\r\n        address addr = provider_addrs[cur];\r\n        uint256 c = 0;\r\n        for(uint256 j = 0; j < content.length; j ++)\r\n            for(uint256 k = 0; k < providers[addr].services.length; k ++)\r\n                if(providers[addr].services[k] == content[j])\r\n                    c = c + 1;\r\n        if(c == content.length)\r\n            return 1;\r\n        return 0;\r\n    }\r\n\r\n    function findService(\r\n        bytes memory params\r\n    ) public view returns (uint256, address[] memory, address[] memory, address[] memory) {\r\n        bytes32[] memory content = abi.decode(params, (bytes32[]));\r\n        uint256 candCount;\r\n\r\n        for(uint256 i = 0;i < provider_addrs.length; i ++) {\r\n            candCount += _isCandidate(i, content);\r\n        }\r\n\r\n        address[] memory candidates = new address[](candCount);\r\n        uint256[] memory repData = new uint256[](candCount);\r\n\r\n        uint256 cur = 0;\r\n        uint256 greyCount = 0;\r\n        uint256 blackCount = 0;\r\n        uint256 whiteCount = 0;\r\n        uint256 maxFee = 0;\r\n\r\n        for(uint256 i = 0; i < provider_addrs.length; i ++) {\r\n            uint256 count = 0;\r\n            address addr = provider_addrs[i];\r\n            uint256 price = 0;\r\n            uint256 mark = 0;\r\n            for(uint256 j = 0; j < content.length; j ++) {\r\n                for(uint256 k = 0; k < providers[addr].services.length; k ++) {\r\n                    if(providers[addr].services[k] == content[j]) {\r\n                        count = count + 1;\r\n                        price = price + providers[addr].prices[k];\r\n                        mark = mark + providers[addr].totalTrust[k];\r\n                    }\r\n                }\r\n            }\r\n            if(count == content.length) {\r\n                candidates[cur] = addr;\r\n                repData[cur] = mark / content.length;\r\n                if(repData[cur] >= 6 * 10 ** 7) {\r\n                    whiteCount = whiteCount + 1;\r\n                    if(price > maxFee)\r\n                        maxFee = price;\r\n                }\r\n                else if(repData[cur] >= 3 * 10 ** 7)\r\n                    greyCount = greyCount + 1;\r\n                else if(repData[cur] >= 10 ** 7)\r\n                    blackCount = blackCount + 1;\r\n                cur = cur + 1;\r\n            }\r\n        }\r\n\r\n        address[] memory blackList = new address[](blackCount);\r\n        address[] memory greyList = new address[](greyCount);\r\n        address[] memory whiteList = new address[](whiteCount);\r\n        blackCount = 0;\r\n        greyCount = 0;\r\n        whiteCount = 0;\r\n\r\n        for(uint256 i = 0;i < cur; i ++) {\r\n            if(repData[i] >= 6 * 10 ** 7) {\r\n                whiteList[whiteCount] = candidates[i];\r\n                whiteCount = whiteCount + 1;\r\n            }\r\n            else if(repData[i] >= 3 * 10 ** 7) {\r\n                greyList[greyCount] = candidates[i];\r\n                greyCount = greyCount + 1;\r\n            }\r\n            else if(repData[i] >= 10 ** 7) {\r\n                blackList[blackCount] = candidates[i];\r\n                blackCount = blackCount + 1;\r\n            }\r\n        }\r\n        \r\n        return (maxFee, blackList, greyList, whiteList);\r\n    }\r\n\r\n    function requestService(\r\n        address to,\r\n        bytes memory params,\r\n        bytes memory params1,\r\n        bytes memory params2,\r\n        bytes memory params3,\r\n        bytes memory params4,\r\n        bytes memory params5\r\n    ) public {\r\n        bytes32[] memory arrData = abi.decode(params, (bytes32[]));\r\n\r\n        for(uint256 i = 0; i < providers[to].services.length; i ++)\r\n            for(uint256 j = 0; j < arrData.length; j ++)\r\n                if(providers[to].services[i] == arrData[j])\r\n                    require(providers[to].curCount[i] < providers[to].maxCount[i], \"Provider cannot provide a service\");\r\n\r\n        if(requesters[msg.sender].hasRegisterd != true) {\r\n            requester_addrs.push(msg.sender);\r\n            requesters[msg.sender].hasRegisterd = true;\r\n        }\r\n\r\n        uint256 cur_req_count = requesters[msg.sender].req_count;\r\n\r\n        requesters[msg.sender].requests[cur_req_count].provider = to;\r\n        requesters[msg.sender].requests[cur_req_count].services = arrData;\r\n        requesters[msg.sender].requests[cur_req_count].status = Status.Requested;\r\n        requesters[msg.sender].requests[cur_req_count].Av = abi.decode(params1, (uint256[]));\r\n        requesters[msg.sender].requests[cur_req_count].A = abi.decode(params2, (uint256[]));\r\n        requesters[msg.sender].requests[cur_req_count].R = abi.decode(params3, (uint256[]));\r\n        requesters[msg.sender].requests[cur_req_count].Cr = abi.decode(params4, (uint256[]));\r\n        requesters[msg.sender].requests[cur_req_count].C = abi.decode(params5, (uint256[]));\r\n\r\n        requesters[msg.sender].requests[cur_req_count].feedback = new uint256[](arrData.length);\r\n\r\n        for(uint256 i = 0;i < arrData.length;i ++)\r\n            requesters[msg.sender].requests[cur_req_count].feedback[i] = 0;\r\n\r\n        requesters[msg.sender].req_count = requesters[msg.sender].req_count + 1;\r\n\r\n        emit Requested(msg.sender, to, arrData);\r\n    }\r\n\r\n    function acceptRequest(\r\n        address req,\r\n        uint256 index,\r\n        bool flag\r\n    ) public {\r\n        bytes32[] memory requested_service = requesters[req].requests[index].services;\r\n\r\n        if(flag == true) {\r\n            for(uint256 i = 0; i < providers[msg.sender].services.length; i ++)\r\n                for(uint256 j = 0;j < requested_service.length; j ++)\r\n                    if(providers[msg.sender].services[i] == requested_service[j])\r\n                        require(providers[msg.sender].curCount[i] < providers[msg.sender].maxCount[i],\r\n                            \"Provider cannot accept the request, please reject it!\");\r\n\r\n            requesters[req].requests[index].status= Status.Accepted;\r\n\r\n            for(uint256 i = 0; i < providers[msg.sender].services.length; i ++)\r\n                for(uint256 j = 0;j < requested_service.length; j ++)\r\n                    if(providers[msg.sender].services[i] == requested_service[j])\r\n                        providers[msg.sender].curCount[i] = providers[msg.sender].curCount[i] + 1;\r\n            \r\n            emit Accepted(req, msg.sender, requested_service);\r\n        }\r\n        else {\r\n            requesters[req].requests[index].status = Status.Rejected;\r\n            \r\n            emit Rejected(req, msg.sender, requested_service);\r\n        }\r\n    }\r\n\r\n    function getWaitingList() public view returns(address[] memory, bytes32[][] memory, uint256[] memory) {\r\n        uint256 wCount = 0;\r\n        for(uint256 i = 0; i < requester_addrs.length; i ++)\r\n            for(uint256 j = 0;j < requesters[requester_addrs[i]].req_count;j ++)\r\n                if(requesters[requester_addrs[i]].requests[j].status == Status.Requested &&\r\n                    requesters[requester_addrs[i]].requests[j].provider == msg.sender)\r\n                    wCount = wCount + 1;\r\n        \r\n        address[] memory addr_arr = new address[](wCount);\r\n        uint256[] memory index_arr = new uint256[](wCount);\r\n        bytes32[][] memory service_arr = new bytes32[][](wCount);\r\n\r\n        uint256 cur = 0;\r\n        \r\n        for(uint256 i = 0; i < requester_addrs.length; i ++)\r\n            for(uint256 j = 0;j < requesters[requester_addrs[i]].req_count;j ++)\r\n                if(requesters[requester_addrs[i]].requests[j].status == Status.Requested &&\r\n                    requesters[requester_addrs[i]].requests[j].provider == msg.sender) {\r\n                    addr_arr[cur] = requester_addrs[i];\r\n                    index_arr[cur] = j;\r\n                    service_arr[cur] = requesters[requester_addrs[i]].requests[j].services;\r\n                    cur = cur + 1;\r\n                }\r\n\r\n        return (addr_arr, service_arr, index_arr);\r\n    }\r\n\r\n    function getProgressList() public view returns(address[] memory, bytes32[][] memory, uint256[] memory) {\r\n        uint256 wCount = 0;\r\n        for(uint256 j = 0;j < requesters[msg.sender].req_count;j ++)\r\n            if(requesters[msg.sender].requests[j].status == Status.Accepted ||\r\n                requesters[msg.sender].requests[j].status == Status.Accept_Viewed)\r\n                wCount = wCount + 1;\r\n        \r\n        address[] memory addr_arr = new address[](wCount);\r\n        uint256[] memory index_arr = new uint256[](wCount);\r\n        bytes32[][] memory service_arr = new bytes32[][](wCount);\r\n\r\n        uint256 cur = 0;\r\n        \r\n        for(uint256 j = 0;j < requesters[msg.sender].req_count;j ++)\r\n            if(requesters[msg.sender].requests[j].status == Status.Accepted ||\r\n                requesters[msg.sender].requests[j].status == Status.Accept_Viewed) {\r\n                addr_arr[cur] = msg.sender;\r\n                index_arr[cur] = j;\r\n                service_arr[cur] = requesters[msg.sender].requests[j].services;\r\n                cur = cur + 1;\r\n            }\r\n\r\n        return (addr_arr, service_arr, index_arr);\r\n    }\r\n\r\n    function getCounts(uint256 index) public view returns(uint256[] memory, uint256[] memory, uint256[] memory, uint256[] memory, uint256[] memory) {\r\n        bytes32[] memory requested_service = requesters[msg.sender].requests[index].services;\r\n        uint256[] memory mData = new uint256[](requested_service.length);\r\n        uint256[] memory tData = new uint256[](requested_service.length);\r\n        uint256[] memory maxData = new uint256[](requested_service.length);\r\n        uint256[] memory minData = new uint256[](requested_service.length);\r\n\r\n        address p = requesters[msg.sender].requests[index].provider;\r\n\r\n        for(uint256 k = 0;k < requested_service.length;k ++) {\r\n            mData[k] = 0;\r\n            tData[k] = 0;\r\n            maxData[k] = 0;\r\n            minData[k] = 50;\r\n            for(uint256 i = 0;i < requesters[msg.sender].req_count;i ++)\r\n                for(uint256 j = 0;j < requesters[msg.sender].requests[i].services.length; j ++)\r\n                    if(requesters[msg.sender].requests[i].services[j] == requested_service[k]) {\r\n                        if(requesters[msg.sender].requests[i].status == Status.Accepted || \r\n                            requesters[msg.sender].requests[i].status == Status.Accept_Viewed) {\r\n                            tData[k] = tData[k] + 1;\r\n                            if(requesters[msg.sender].requests[i].provider == p)\r\n                                mData[k] = mData[k] + 1;\r\n                        }\r\n                        if(requesters[msg.sender].requests[i].status == Status.Finished && requesters[msg.sender].requests[i].provider == p) {\r\n                            if(requesters[msg.sender].requests[i].feedback[j] > maxData[k])\r\n                                    maxData[k] = requesters[msg.sender].requests[i].feedback[j];\r\n                            if(requesters[msg.sender].requests[i].feedback[j] < minData[k])\r\n                                minData[k] = requesters[msg.sender].requests[i].feedback[j];\r\n                        }\r\n                    }\r\n        }\r\n\r\n        return (mData, tData, maxData, minData, providers[p].curCount);\r\n    }\r\n\r\n    function calcFB(uint256 index) public view returns(uint256[] memory, uint256[] memory, uint256[] memory, uint256[] memory, uint256[] memory) {\r\n        return (requesters[msg.sender].requests[index].Av,\r\n                requesters[msg.sender].requests[index].A,\r\n                requesters[msg.sender].requests[index].R,\r\n                requesters[msg.sender].requests[index].Cr,\r\n                requesters[msg.sender].requests[index].C);\r\n    }\r\n\r\n    function _calcGlobalTrust(address p, bytes32 s) private view returns(uint256) {\r\n        uint256 sum = 0;\r\n        for(uint256 i = 0; i < requester_addrs.length; i ++)\r\n            sum += reputation[requester_addrs[i]][p][s];\r\n        return sum;\r\n    }\r\n\r\n    function giveFeedback(\r\n        uint256 index,\r\n        bytes memory param,\r\n        bytes memory param1\r\n    ) public {\r\n        // uint256[] memory fbData = _calcFB(index, params1, params2, params3, params4, params5);\r\n        uint256[] memory fbData = abi.decode(param, (uint256[]));\r\n        uint256[] memory hData = abi.decode(param1, (uint256[]));\r\n        address p = requesters[msg.sender].requests[index].provider;\r\n\r\n        for(uint256 i = 0; i < fbData.length;i ++)\r\n            reputation[msg.sender][p][requesters[msg.sender].requests[index].services[i]] = fbData[i];\r\n\r\n        requesters[msg.sender].requests[index].status= Status.Finished;\r\n\r\n        for(uint256 i = 0; i < providers[p].services.length; i ++) {\r\n            for(uint256 j = 0;j < requesters[msg.sender].requests[index].services.length; j ++)\r\n                if(providers[p].services[i] == requesters[msg.sender].requests[index].services[j]) {\r\n                    if(providers[p].curCount[i] > 3)\r\n                        providers[p].totalTrust[i] = (hData[i] * reputation[msg.sender][p][providers[p].services[i]] + (10 ** 4 - hData[i]) * _calcGlobalTrust(p, providers[p].services[i]));\r\n                    else\r\n                        providers[p].totalTrust[i] = ((10 ** 4 - hData[i]) * reputation[msg.sender][p][providers[p].services[i]] + hData[i] * _calcGlobalTrust(p, providers[p].services[i]));\r\n                    providers[p].curCount[i] = providers[p].curCount[i] - 1;\r\n                }\r\n        }\r\n    }\r\n\r\n    function getMarks(uint256 index) public returns(uint256[] memory, uint256[] memory) {\r\n        address p = requesters[msg.sender].requests[index].provider;\r\n        uint256[] memory gData = new uint256[](providers[p].services.length);\r\n        uint256[] memory tData = new uint256[](providers[p].services.length);\r\n        for(uint256 i = 0;i < providers[p].services.length; i ++) {\r\n            gData[i] = _calcGlobalTrust(p, providers[p].services[i]);\r\n            tData[i] = providers[p].totalTrust[i];\r\n        }\r\n\r\n        return (gData, tData);\r\n    }\r\n}",
  "sourcePath": "C:\\Users\\Jason\\Desktop\\contract\\contracts\\ServiceContract.sol",
  "compiler": {
    "name": "solc",
    "version": "0.5.16+commit.9c3226ce.Emscripten.clang"
  },
  "schemaVersion": "3.4.3",
  "updatedAt": "2022-06-13T21:21:27.673Z",
  "networkType": "ethereum",
  "devdoc": {
    "methods": {}
  },
  "userdoc": {
    "methods": {}
  }
}